:100000000C9438000C9442000C9442000C94420072
:100010000C9442000C9442000C9442000C94420058
:100020000C9442000C9442000C9442000C94420048
:100030000C9442000C9442000C9442000C94420038
:100040000C9442000C9442000C9442000C94420028
:100050000C9442000C9442000C9442000C94420018
:100060000C9442000C9442006E616E00696E660052
:1000700011241FBECFEFD8E0DEBFCDBF0E944400E9
:100080000C94AA050C940000259A2D9A2FEF83ED6D
:1000900090E3215080409040E1F700C000002D988F
:1000A0002FEF83ED90E3215080409040E1F700C0B6
:1000B0000000EBCFAFE0B0E0E0E6F0E00C94E60348
:1000C0007C013B015A01FC0116821782838181FF6A
:1000D00051C39AE0292EF7012381F30123FD859175
:1000E00023FF81913F01811509F442C0853239F423
:1000F00023FD959123FF91913F01953239F4B7018A
:1001000090E00E940B0565015601E5CF30E010E05C
:10011000812C912CF0E28F1608F03CC09B3279F1D3
:1001200060F4903271F1933291F19E3209F045C042
:1001300086FC1EC0689486F806C09D3229F1903373
:1001400059F5689480F8F30123FD959123FF91916F
:100150003F019111DFCF082D097F903709F481C24B
:1001600008F077C2983509F47FC29F3609F483C23C
:10017000F701868197812F96E2E10C94020468943E
:1001800081F8689482F8DFCF689483F8DCCF6894B4
:1001900084F8D9CF87FC1BC080ED890F8A3028F600
:1001A00086FE05C0129D800D1124182FCCCF929C85
:1001B000800D1124982E8F2AC6CF9C3619F468948E
:1001C00087F8C1CF9C3409F1983609F4BCCF3115BA
:1001D000F1F0892F8F7D8554833008F095C165013A
:1001E00028E0C20ED11C8FE3898301E010E05E019C
:1001F0003FEFA31AB30AE89487F883FC04C00915FB
:10020000110508F4E8C1592CFEC131E09CCF8BEBFD
:10021000890F833090F4689484F8905E86FE16E02F
:100220004FE38422953689F4689486F8212F18309C
:1002300010F027E017E0412C14C08BE9890F8330C0
:1002400008F062C1E89484F8E9CF963699F568948D
:1002500087F8812F1C3308F08BE344244394480E25
:1002600027E0F50161917191819191916F01042DC8
:10027000AE014F5F5F4F0E941D045C013980832DEA
:1002800089700DE2813029F082FA002705F981FC9E
:100290000BE2F32DFC705F2EF11541F133FA33249C
:1002A00033F801116AC224E0512C921608F47CC282
:1002B00083E068C220E0111509F4BDCF1150B6CF1C
:1002C00081108052B70190E00E940B050F5F1F4F15
:1002D000F80184918111F4CF511409F415CFB701BD
:1002E00080E290E00E940B055A94F6CF87FE2FC063
:1002F000842D8A0D34FE04C09A81913309F4815013
:1003000044244394181634F4482EF9E08F1710F063
:1003100088E0482EC501B7FE02C080E090E001965B
:1003200001110196111531F0212F30E02F5F3F4F61
:10033000820F931F8915910514F4592C581A882D92
:100340008970A1F551102BC00115C9F131C086FC8F
:1003500023C0E12FF0E01A151B043CF02CEFA2168D
:100360002FEFB20614F0689487F8CE010396E80FD9
:10037000F91F01C01150111519F082918033D1F38A
:1003800087FE0AC044244394410EA116B10414F41C
:100390001A19C0CF10E0BECF85E090E0C1CFB70101
:1003A00080E290E00E940B055A94CCCF011529F011
:1003B000B701802F90E00E940B0583FC02C0511012
:1003C0003FC087FE56C04501B7FE02C0812C912C6C
:1003D000CE0101968A0D9B1DFC01E819F909EC87F5
:1003E000FD879501241931092E873F87012F10E0E1
:1003F000119501951109A814B9044CF18E859F85BA
:100400008815990524F5EC85FD858181F1E08F1A29
:10041000910880169106ECF02C853D852F5F3F4FAB
:100420002C873D87B70190E00E940B053FEF8316B4
:10043000980409F7B7018EE290E00E940B05DBCF2C
:10044000B70180E390E00E940B055A94B8CF80E397
:10045000DDCFA814B90431F49A81953318F039F43A
:1004600034FE05C0B70190E00E940B0535CF81E353
:10047000F9CF8A81813311F0E89434F8B70190E024
:100480000E940B05111124C085E490E084FC02C099
:1004900085E690E0B7010E940B05A114B1041CF0A1
:1004A00061F534FE2AC0B194A194B1088DE2B70180
:1004B00090E00E940B0580E39AE0A916B104FCF4D9
:1004C000B70190E00E940B05B701C501C096CCCFE3
:1004D000B7018EE290E00E940B051E5F02E0802FC4
:1004E0000F5FFE013196E80FF11D8081B70190E0AA
:1004F0000E940B050113F3CFC7CF8BE2D8CF8F5FDC
:100500004AE0A41AB108D8CF9336B9F1933709F469
:1005100042C0933509F44EC0943619F0993609F06B
:100520007EC0F50187FE73C06191719181919191B7
:100530006F01082D0F7697FF03C00E94DE0300684D
:100540002AE030E05E01FFEFAF1ABF0AA5010E946A
:100550004C05B82EBA1806FF98C0802F8E7FB116B2
:1005600008F092C004FFE4C002FDD8C00E7E512EF8
:10057000802F867809F494C0D6C06501E2E0CE0EE3
:10058000D11CF5018081898301E010E05E01FFEF5D
:10059000AF1ABF0A30CEF501A190B1906F01612F63
:1005A00070E086FC02C06FEF7FEFC5010E9400057E
:1005B0008C0121CEF501A190B1906F01612F70E007
:1005C00086FC02C06FEF7FEFC5010E94F5048C012D
:1005D000689487F812CEB70180E290E00E940B0584
:1005E0009A940DCEF50187FC859187FE81915F017C
:1005F000B70190E00E940B0581E0511001C080E03E
:10060000581A015011090115110561F765CE619164
:1006100071916F01872F880F880B982F8ACF95379C
:1006200009F099CD082D0F7E2AE030E0F50107FF93
:1006300025C061917191819191916F015E01FFEFF0
:10064000AF1ABF0AA5010E944C05B82EBA180F7741
:1006500082CF983709F08CCD84FC04C020E130E0D3
:10066000E5CF00610460FACF84FE02C0082D066069
:1006700020E132E0DBCF28E030E0D8CF619171910A
:100680006F0180E090E0DACF082F5B2C04FF70CF81
:10069000FE01EB0DF11D8081803309F042C0097E1F
:1006A00003FD0EC000FF50C01B2D591418F4190D86
:1006B0001519592C892D8519951408F480E0580EC8
:1006C000591408F043C09518592C04FF41C0B701D4
:1006D00080E390E00E940B0502FF09C088E590E0EE
:1006E00001FD02C088E790E0B7010E940B05B1163A
:1006F000D0F18E010F5F1F4FBA949E012E5F3F4FC6
:100700002B0D311D5901F50182915F01B70190E078
:100710000E940B05A016B106B1F7DECD512E082FB1
:10072000B7CF02FD02C05394BBCF53945394B8CFBC
:10073000512E082F1DCFB70180E290E00E940B05DB
:10074000A394A914C0F3B6CFA52CFBCF512CBDCFD9
:10075000802F867861F280E201FD8BE207FD8DE259
:10076000B70190E0C2CFB70180E390E00E940B0593
:100770001150BDCF8FEF9FEFFECCF5E0512C9F16AF
:1007800070F084E0592C581A83FC07C0B70180E24E
:1007900090E00E940B055A94C9F7011529F0B701A2
:1007A000802F90E00E940B0508E610E0311002C097
:1007B0000CE610E084FA882484F88ACD9095809520
:1007C000709561957F4F8F4F9F4F08952F923F9265
:1007D0004F925F926F927F928F929F92AF92BF9251
:1007E000CF92DF92EF92FF920F931F93CF93DF93FD
:1007F000CDB7DEB7CA1BDB0B0FB6F894DEBF0FBE5A
:10080000CDBF09942A88398848885F846E847D84A6
:100810008C849B84AA84B984C884DF80EE80FD80A8
:100820000C811B81AA81B981CE0FD11D0FB6F8941E
:10083000DEBF0FBECDBFED010895283008F027E0E0
:100840003327DA01990F311D87FD9160009661050C
:10085000710539F432602E5F3D9330E32A95E1F75C
:1008600008959F3F30F080387105610509F03C5FC5
:100870003C5F3D93913008F08068911DDF93CF93EA
:100880001F930F93FF92EF92192F987F9695E92F60
:1008900096959695E90FFF27EE54F44F9927332745
:1008A000EE24FF24A701E70105900894079428F49B
:1008B000360FE71EF81E491F511D660F771F881F50
:1008C000991F0694A1F70590079428F4E70EF81EE7
:1008D000491F561FC11D770F881F991F661F069459
:1008E000A1F70590079428F4F80E491F561FC71F5B
:1008F000D11D880F991F661F771F0694A1F70590D9
:10090000079420F4490F561FC71FD81F990F661F61
:10091000771F881F0694A9F784911095177041F0EE
:10092000D695C79557954795F794E7941A95C1F7CB
:10093000E8E5FBE0689415901591359165919591E6
:1009400005907FE27395E118F10A430B560BC90B32
:10095000D009C0F7E10CF11E431F561FC91FD01D5F
:100960007EF4703311F48A95E6CFE894015030F0AC
:10097000080F0AF40027021708F4202F2395022FEE
:100980007A3328F079E37D932A95E9F710C07D93B7
:100990002A9589F606949795679537951795179434
:1009A000E118F10A430B560BC90BD00998F02395B7
:1009B0007E9173957A3308F070E37C932013B8F737
:1009C0007E9170617D9330F0839571E37D9370E348
:1009D0002A95E1F71124EF90FF900F911F91CF918D
:1009E000DF91992787FD90950895FC01059061504E
:1009F00070400110D8F7809590958E0F9F1F089535
:100A0000FC016150704001900110D8F780959095DD
:100A10008E0F9F1F0895A3E0B0E0E1E1F5E00C9494
:100A2000F503182F99836A837B83DB0113968C91DE
:100A300081FD09C01FEFBFEFB983812F99812396F4
:100A4000E3E00C94110482FF1BC0EA81FB81268144
:100A50003781848195812817390754F40190F081FA
:100A6000E02DCF010196AA81BB818D939D931083C8
:100A7000EA81FB8186819781019686839783DDCF0A
:100A8000AA81BB811896ED91FD911A97BD01812F26
:100A90000995892B69F3CECFFA01AA27283051F1A5
:100AA000203181F1E8946F936E7F6E5F7F4F8F4F9F
:100AB0009F4FAF4FB1E03ED0B4E03CD0670F781FFE
:100AC000891F9A1FA11D680F791F8A1F911DA11DE3
:100AD0006A0F711D811D911DA11D20D009F468941C
:100AE0003F912AE0269F11243019305D3193DEF6C4
:100AF000CF010895462F4770405D4193B3E00FD07A
:100B0000C9F7F6CF462F4F70405D4A3318F0495D64
:100B100031FD4052419302D0A9F7EACFB4E0A69547
:100B20009795879577956795BA95C9F70097610569
:100B3000710508959B01AC010A2E069457954795BF
:100B400037952795BA95C9F7620F731F841F951FB4
:100B5000A01D0895F894FFCF00407A10F35A00A02A
:100B6000724E18090010A5D4E80000E87648170076
:100B700000E40B54020000CA9A3B000000E1F505B6
:100B8000000080969800000040420F000000A08600
:100B900001000000102700000000E8030000000032
:100BA0006400000000000A000000000001000000D6
:100BB00000002C76D888DC674F0823DFC1DFAE59F0
:100BC000E1B1B796E5E3E453C63AE651997696E883
:100BD000E6C28426EB898C9B62ED407C6FFCEFBC07
:100BE0009C9F40F2BAA56FA5F490055A2AF75C9332
:100BF0006B6CF9676DC11BFCE0E40D47FEF520E668
:100C0000B500D0ED902E0300943577050080841E4A
:100C1000080000204E0A000000C80C333333330FA5
:100C2000986E12831141EF8D2114893BE65516CF42
:100C3000FEE6DB18D1844B381BF77C1D901DA4BB4E
:100C4000E424203284725E228100C9F124ECA1E503
:020C50003D273E
:00000001FF
